:020000040800F2
:1000000098130020E9010008952100081319000841
:10001000051F0008E90C0008C127000800000000C7
:10002000000000000000000000000000572500084C
:10003000ED0C0008000000007522000841260008B1
:10004000030200080302000803020008E12300087D
:10005000030200080302000803020008030200086C
:10006000030200080302000803020008030200085C
:10007000030200080302000803020008030200084C
:10008000030200080302000803020008030200083C
:10009000030200080302000803020008ED11000833
:1000A000030200080302000803020008030200081C
:1000B000030200080302000803020008030200080C
:1000C00003020008030200080302000803020008FC
:1000D0000302000803020008A52600080302000826
:1000E00051110008452300080302000800F002F83F
:1000F00000F06BF80AA090E8000C82448344AAF157
:100100000107DA4501D100F060F8AFF2090EBAE854
:100110000F0013F0010F18BFFB1A43F0010318473B
:1001200038F7000058F700000A444FF0000C10F8B0
:10013000013B13F0070408BF10F8014B1D1108BF65
:1001400010F8015B641E05D010F8016B641E01F805
:10015000016BF9D113F0080F1EBF10F8014BAD1C55
:100160000C1B09D16D1E58BF01F801CBFAD505E073
:1001700014F8016B01F8016B6D1EF9D59142D6D3CD
:10018000704700000023002400250026103A28BFF5
:1001900078C1FBD8520728BF30C148BF0B607047F9
:1001A000642900F0A780732900F051830020704774
:1001B0001FB500F08DFC04000020002104F0DCFCE1
:1001C000401C60601FBD10B510BD00F05BFC114607
:1001D000FFF7EEFF04F04CFC00F08CFC03B4FFF7DB
:1001E000F2FF03BC00F090FC094880470948004733
:1001F000FEE7FEE7FEE7FEE7FEE7FEE7FEE7FEE7D7
:10020000FEE7FEE704480549054A064B7047000033
:1002100045260008ED000008980D002098130020E6
:10022000980F0020980F00200FB41CB5084B06AAA9
:100230007B4469460090059800F0DFFA04460020F0
:10024000694600F0EDFA20461CBC5DF814FB000086
:10025000ED05000070B5044685690068C10601D54A
:10026000302600E02026C00707D070BDD4E9012168
:1002700030469047206A401C20626D1EF6D570BD46
:1002800070B5044685690078C00707D170BDD4E910
:10029000012120209047206A401C20626D1EF6D567
:1002A00070BD70B50C460546012A05D02878800639
:1002B00000D5EA69002302E0012305E05B1C9342BC
:1002C00002D2E05C0028F9D1A869E618C01AA8613A
:1002D000286A184428622846FFF7BCFF04E0D5E9E5
:1002E000012114F8010B9047B442F8D32846FFF7D8
:1002F000C7FF70BD2DE9F04106460024106875293E
:10030000314616A510D0AFF30080002802DA404233
:1003100013A507E031688A0701D512A502E0490755
:1003200004D511A5012401E0AFF3008000210A22C9
:1003300006F1240709E0B0FBF2FCB0FBF2F302FB8C
:100340001C00303078541846491C0028F3D123464D
:100350002A463046BDE8F04100F0F0B90000000048
:100360002D0000002B000000200000002DE9F05FB0
:10037000894604464FF0000ADFF874B1FB44C0F828
:1003800020A02046E1688847002874D0252806D0A0
:10039000D4E901219047206A401C2062F1E7002641
:1003A0005F462046E16888472028054607DB312D57
:1003B00005D2781910F8200C08B10643F1E7B00710
:1003C00001D526F00406C4F81CA00027C4F818A024
:1003D0002A2D09D0284604F0E8FA38B304EB870840
:1003E000303DC8F8185019E059F8041B204604EBBA
:1003F00087029161E1688847012F054618D1E069BD
:10040000002820DA26F020061DE0D8F8180000EBBE
:10041000800005EB40003038C8F818002046E1683D
:100420008847054604F0C1FA0028EED1012F0AD012
:100430002E2D08D12046E16888477F1C0546022FF3
:1004400046F02006C4DBA069002803DA404246F0EB
:100450000106A061F00701D026F010066C2D0BD02C
:10046000682D09D04C2D39D06A2D35D0742D35D05A
:100470007A2D33D016E038E0E1682F4620468847D1
:10048000B842054609D16C2F26D04FF48060E16850
:10049000064320468847054604E06C2F1AD04FF4E7
:1004A000807006430DB3A5F14100192802D820350C
:1004B00046F400664A462946204626604E46FFF727
:1004C0006FFE80B101280BD0F61D26F0070000F169
:1004D000080956E74020E4E78020D8E70020D6E767
:1004E00006F104094DE7284652E7206ABDE8F09F6F
:1004F000ACF4000070B5064600F01CF9046805462F
:1005000030460A22002100F0A6F92C6070BD10B51B
:10051000203AC0F00B80B1E81850203AA0E81850FB
:10052000B1E81850A0E81850BFF4F5AF5FEA027CBC
:1005300024BFB1E81850A0E8185044BF18C918C02B
:10054000BDE810405FEA827C24BF51F8043B40F8CC
:10055000043B08BF7047D20728BF31F8023B48BFB1
:1005600011F8012B28BF20F8023B48BF00F8012BEF
:1005700070470000014900F0A7B90000080D0020F5
:1005800010B503681C1404EB21449BB289B21944D2
:1005900094FBF2F302FB134394FBF2F401EB0343ED
:1005A00093FBF2F102FB113193FBF2F301E05B1ECE
:1005B00011440029FBDB016003EB044010BDF0B5E2
:1005C00004464FF0FF3585B00068049060680290E3
:1005D000A0680390E068019020690090666906F1C8
:1005E0008040B0F1004F7CD83C22002104A8FFF7E6
:1005F000C7FF3C22014602A8FFF7C2FF18220146AE
:1006000003A8FFF7BDFF411E40F2B55201A8FFF756
:10061000B7FF0C22074668460021FFF7B1FF414BA8
:1006200000EB8700304400267B4411E0511A019111
:100630000099491C0229009102D00C2908D105E03B
:10064000810705D00199491C019101E0401C0096E9
:100650000099019A595C9142E8DD0099012906D17F
:100660001C2A04D1810702D00221CDE90016A0F195
:1006700046018B293CD2DDE90061002202E09F5C4B
:10068000521C3944B242FADB012E02DD820700D04F
:10069000491E40F2B55340F26D16C21700EB92723C
:1006A00092105A4300F0030303FB062283070A4417
:1006B00000D1521E039E02EB4203049F06EBC303CC
:1006C000029EC3EB031306EB8303174E33441E1441
:1006D0009BB2C6EB0616C3EB0313B60007EB83030E
:1006E00000E005E006EB134666F31F43360C02D02C
:1006F000284605B0F0BD80C4029E40C4039E40C49D
:10070000019E761C44F80C6B009E44E902600720B1
:10071000521C92FBF0F600FB162084E823001846DA
:10072000E7E7000011F20000A039CEFD70477047E6
:100730007047000000487047340D00202DE9F04755
:100740000D4699469246044600F124080168880641
:1007500004D5E06921F01001216000E00120A842E9
:1007600001DD471B00E00027A1697A1902EB0900AF
:10077000081AA0612078C00602D42046FFF76AFD5F
:10078000002608E0D4E901211AF806009047206A03
:10079000401C761C20624E45F4DB2078C0060AD54A
:1007A0002046FFF757FD06E0D4E9012130209047AD
:1007B000206A401C2062381EA7F10107F4DC07E024
:1007C000D4E9012118F805009047206A401C2062F6
:1007D000281EA5F10105F3DC2046FFF751FD207826
:1007E000000602D50220BDE8F0870120FBE70000EB
:1007F00001694A1C02610878704700B58FB0CDE9E5
:1008000001310021059105497944CDE903101146D4
:100810006846FFF7ABFD0FB000BD0000E5FFFFFF2E
:100820000A6802F8010B0A60704710B5436913B1FA
:10083000AFF3008001E0FFF734FD012010BD127816
:1008400000F124010A7000224A700122EDE71168CC
:100850004FF0FF32E9E72DE9F04791460F46804619
:100860000446002614F8015B2DB100F08DF80068F5
:10087000405DC007F6D12B2D02D02D2D18D0641E5F
:100880004A463946204600F087F827B13968A14228
:1008900001D1C7F800804FF0020471050BD540422A
:1008A000002803DDFFF746FF0460A007BDE8F087DE
:1008B00046F48066E4E70028F8DAFFF73BFF0460BF
:1008C0006FF00040F2E7000070B50C4601680020B0
:1008D0004A1C3ED03C22B1FBF2F302FB1313B1FBE6
:1008E000F2F12360B1FBF2F302FB1313B1FBF2F15F
:1008F00018226360B1FBF2F302FB1313B1FBF2F1B8
:1009000046F2E0320A440721A360B2FBF1F301FB97
:10091000132140F2B553B2FBF3F5A161B2FBF3F141
:1009200003FB15228900B2F5B77F08D39B10521E36
:10093000B2FBF3F52944B2FBF3F503FB15220F4B91
:10094000E261616189077B440CD03B2A0AD3521CC7
:1009500008E02C21204600F06EF80120E0600AE05B
:10096000521A401C195C9142FAD9521CC4E9032066
:100970004FF0FF302062204670BD0000F3EE000013
:1009800000487047340D002010B500F0A1F8001D9C
:1009900010BD00BFE54100002DE9F05F824615461D
:1009A0008B4600270AF10104B9460078302801D0AF
:1009B0009DB113E014F8010B0127782803D05828C3
:1009C00001D045B10AE00DB1102D07D1002714F870
:1009D000010B102502E0082500E00A250026B0469C
:1009E0000EE005FB080005FB06F101271FFA80F861
:1009F00001EB1046B6F5803F00D3B94614F8010B61
:100A0000294600F069F80028EBDABBF1000F05D0A9
:100A10000FB1641E00E05446CBF80040B9F1000F5E
:100A200006D0FFF787FE02210160C81EBDE8F09FD7
:100A300048EA0640FAE74FF0000200B51346944634
:100A40009646203922BFA0E80C50A0E80C50B1F126
:100A50002001BFF4F7AF090728BFA0E80C5048BF3A
:100A60000CC05DF804EB890028BF40F8042B08BFD8
:100A7000704748BF20F8022B11F0804F18BF00F8D4
:100A8000012B70477546FFF77BFFAE4605006946B0
:100A9000534620F00700854618B020B5FFF7B2FB9B
:100AA000BDE820404FF000064FF000074FF000086F
:100AB0004FF0000B21F00701AC46ACE8C009ACE8F0
:100AC000C009ACE8C009ACE8C0098D467047000019
:100AD00000487047540D00203A2800D2303820F0EA
:100AE0002002412A01D3A2F13700884201D34FF0FE
:100AF000FF30704710B50446AFF300802046BDE8D4
:100B00001040FFF76BBB000001491820ABBEFEE7A9
:100B1000260002004FF0013C50F8042B51F8043B32
:100B20009A4221D1A2EB0C03934313EACC1317D1C1
:100B300050F8042B51F8043B9A4215D1A2EB0C0358
:100B4000934313EACC130BD150F8042B51F8043B18
:100B50009A4209D1A2EB0C03934313EACC13DBD0E6
:100B60004FF00000704700BFD01A01BAB1FA81F10E
:100B700001F0180122FA01F0CB40C1F12001DBB2F3
:100B8000C0B2C01A2CFA01F3D11A914311EAC31171
:100B9000E6D17047704710B500F0DAFE10BD70B5B1
:100BA00006460C46154608E03046721C96B200F028
:100BB00007F804F8010B681E85B2002DF4D170BD52
:100BC00070B50446002600F061FFA02000F02CFF65
:100BD00000F094FF201200F027FF00F08FFF254661
:100BE000E11704EB11610912A4EB0121C8B200F076
:100BF0001BFF00F083FF00F049FFA12000F014FF6D
:100C000000F07CFF002000F0E3FE064600F05AFFF3
:100C1000304670BD70B505460C46164606E0217894
:100C2000284600F01EF8681C85B2641C301EA6F130
:100C300001018EB2F3D170BD2DE9F04105460E469B
:100C40001746002409E0E20026FA02F2D1B22A197E
:100C500090B200F006F8601CC4B2BC42F3D3BDE809
:100C6000F08170B504460E4600F010FFA02000F0A1
:100C7000DBFE00F043FF201200F0D6FE00F03EFF46
:100C80002546E11704EB11610912A4EB0121C8B25A
:100C900000F0CAFE00F032FF304600F0C5FE00F062
:100CA0002DFF00F00FFF0A2003F0A6FE70BD00002C
:100CB00008B50146002000900348009000980844C1
:100CC00000900098008808BD006C004008B5002224
:100CD0000092044A0092009A02440092009A116025
:100CE00008BD0000006C004000BFFEE77047F8B58B
:100CF00004460D4616461F4644F208202B4632464F
:100D000029460090204600F06FFD48F210406A1C12
:100D100093B291B2621C009090B2324600F064FD32
:100D200044F208203B46224629460090204600F027
:100D30005BFD48F21040631C9AB26B1C99B2631CB5
:100D4000009098B23B4600F04FFD4FF6FF703B46D7
:100D5000324639460090204600F046FD4FF6FF70BF
:100D60003B46324629460090304600F03DFDF8BD36
:100D7000F8B506460F4614461D464FF6FF703B4633
:100D8000224639460090304600F02EFD4FF6FF70A7
:100D90002B46324639460090304600F025FD48F299
:100DA00010406A1E93B291B2721C009090B222461B
:100DB00000F01AFD44F208202B46224629460090F6
:100DC000304600F011FD48F21040631E9AB27B1CC1
:100DD00099B2631E009098B22B4600F005FD44F2D4
:100DE00008202B46224639460090204600F0FCFCA5
:100DF000F8BD2DE9F04105460E4617469846069C7B
:100E0000012C05D143463A4631462846FFF76FFF8D
:100E10002CB943463A4631462846FFF7A9FFBDE8BC
:100E2000F08100002DE9F84F0446B848007850B131
:100E3000B74800884FF6FF734FF6E072002100902C
:100E4000084600F091FC022C70D1B2E030BF0120C6
:100E500003F0F0FDAE48008810B90120AC490880CD
:100E60004FF48041AB4800F057FB08B9012000E087
:100E7000002006464FF40041A64800F04DFB08B99B
:100E8000012000E0002007464FF48071A24800F0E6
:100E900043FB08B9012000E0002080464FF40071B8
:100EA0009D4800F039FB08B9012000E00020814690
:100EB0004FF48061984800F02FFB08B9012000E052
:100EC00000208246C6B192480088401E80B29049F8
:100ED0000880012801DA042008800020FFF7A2FF23
:100EE000642003F089FD00BF4FF48041894800F081
:100EF00013FB0028F8D05DE0CFB185480088401C86
:100F000080B283490880042801DD01200880002088
:100F1000FFF788FF642003F06FFD00BF4FF400412E
:100F20007C4800F0F9FA0028F8D043E045E0BAF137
:100F3000000F30D0012576480088012806D002280D
:100F400008D003280AD0042811D10BE031207349BE
:100F500008600DE032207149086009E033206F49D4
:100F6000086005E0012081468046002500E000BFC2
:100F700000BF642003F040FD00BF4FF4806166486D
:100F800000F0CAFA0028F8D015B1002060490880A6
:100F900005B10FE000BFB8F1000F02D1B9F1000FA9
:100FA00007D000205E490870594908805B490860F5
:100FB00000E04BE700BFBDE8F88F012C0AD157488D
:100FC000006800B1F7E70120554908701020534927
:100FD0000860F0E7032C02D100204D4908804C48FE
:100FE0000088002857D14EF67D7000F0E5FD4DA039
:100FF0004EF67D730022082100900A2000F0C1FA0D
:1010000000201C23A0221946009000F0EDFB502385
:10101000962228210A20FFF7ABFE44A04EF67D73EE
:101020001F2235210090232000F0ABFA78233222D2
:101030005A210A20FFF79CFE3FA04EF67D731F2227
:10104000612100900F2000F09CFA782396225A210B
:101050004620FFF78DFE3AA04EF67D731F226121D8
:101060000090502000F08DFA19239B220521872043
:10107000FFF77EFE35A04EF67D734FF478420621D1
:1010800000908D2000F07DFA012021490880002089
:10109000FFF7C8FE00BF1E480088012800D100E00D
:1010A000002050239622282100900A20FFF7A1FE5D
:1010B00017480088022801D1012000E00020782391
:1010C00032225A2100900A20FFF793FE1048008830
:1010D000032801D1012000E00020782396225A2124
:1010E00000904620FFF785FE09480088042801D1BA
:1010F000012000E0002019239B2205210090872079
:10110000FFF777FE00BF00BF00BF54E716000020C6
:101110005C050020000C0140000801401800002080
:1011200017000020436C6F636B0000004170706C0F
:1011300069636174696F6E0053796E63000000002B
:1011400053657474696E67730000000078000000D6
:1011500008B54FF4806000F075F8012819D18102BC
:101160001D4800F0D9F980B91C48007840B11CA096
:101170004FF6E073002211460090142000F001FAAF
:101180000120FFF74FFE00F0BBF84FF4806000F045
:1011900053F84FF4804000F055F801280AD181033C
:1011A000114800F0B9F908B900F0AAF84FF48040EE
:1011B00000F042F84FF4004000F044F801280AD152
:1011C000C103094800F0A8F908B900F099F84FF4F4
:1011D000004000F031F808BD000801401600002072
:1011E0004558544931300000000C014010B54FF40F
:1011F000807000F027F801280AD101020D4800F0A4
:101200008BF908B900F07CF84FF4807000F014F806
:101210004FF4007000F016F801280AD14102054889
:1012200000F07AF908B900F06BF84FF4007000F0A4
:1012300003F810BD00080140014908607047000034
:1012400014040140014600200022074B1B6803EAFA
:101250000102054B14331B680B4013B10AB1012086
:1012600000E00020704700000004014000212349F5
:101270008279002A3AD00A46126803689A430B46DC
:101280001A600A1D126803689A430B1D1A600279DE
:1012900011440A6803681A430A60184A083212683F
:1012A00003689A43154B08331A601A1D12680368C5
:1012B0009A43124B0C331A604279102A0ED11A1F2E
:1012C000126803681A430D4B08331A601A1D12681E
:1012D00003681A43094B0C331A600DE00749427941
:1012E00011440A6803681A430A6005E00279114450
:1012F0000A6803689A430A607047000000040140CE
:1013000010B54FF48051074800F00FF948B14FF481
:101310008051044800F012F9002003490870034985
:10132000086010BD000C01401700002018000020CC
:1013300030B500228B071C0F0F2303FA04F20B4B6E
:101340008C1053F824309343084C8D1044F825300A
:1013500023468C1053F824308C07240F00FA04F431
:101360002343024C8D1044F8253030BD0800014065
:101370002DE9F0410246002500260020002300242C
:10138000002791F803C00CF00F0591F803C00CF092
:10139000100CBCF1000F03D091F802C04CEA050517
:1013A00091F800C0BCF1000F31D0146800202BE090
:1013B0004FF0010C0CFA00F3B1F800C00CEA030680
:1013C0009E4220D183004FF00F0C0CFA03F7BC4370
:1013D00005FA03FC4CEA040491F803C0BCF1280FA1
:1013E00006D14FF0010C0CFA00FCC2F814C00AE060
:1013F00091F803C0BCF1480F05D14FF0010C0CFA75
:1014000000FCC2F810C0401C0828D1D31460B1F809
:1014100000C0BCF1FF0F34DD546800202EE000F165
:10142000080C4FF0010808FA0CF3B1F800C00CEA00
:1014300003069E4221D183004FF00F0C0CFA03F7F4
:10144000BC4305FA03FC4CEA040491F803C0BCF168
:10145000280F05D100F1080C08FA0CF8C2F8148026
:1014600091F803C0BCF1480F07D100F1080C4FF010
:10147000010808FA0CF8C2F81080401C0828CED3E6
:101480005460BDE8F0810000F0B50A460023002456
:101490000021002500F00046B6F1004F02D11D4E9C
:1014A000F16901E01B4E7168C0F3034583B200F49B
:1014B0004016B6F5401F08D121F07061154E7668D0
:1014C00026F07066134F7E6012E000F48016B6F5C9
:1014D000801F06D1032606FA05F4A14341F070618E
:1014E00006E0460D360103FA06F6B14341F070619D
:1014F00022B1460D360103FA06F6314300F00046EC
:10150000B6F1004F02D1034EF16101E0014E71606E
:10151000F0BD0000000001400246002093680B402F
:101520000BB1012000E00020704702460020D36884
:101530000B400BB1012000E0002070474161704773
:10154000016170470AB1016100E0416170472DE916
:10155000F84305460E4617469846DDE90894CDF84F
:1015600000900CB1384600E0404603460CB14046BE
:1015700000E0384602463146284600F002F8BDE851
:10158000F8832DE9FC4104460D4616461F46DDF85A
:10159000208000203B4632462946CDE90080204687
:1015A00000F002F8BDE8FC812DE9F84F07468846B7
:1015B00093469A46DDF828900097B6E00B980028ED
:1015C00041D199F8000080283DDA99F800600D2E8D
:1015D00005D1009F08F110001FFA80F830E0202E9E
:1015E00003DDA6F1200086B200E00026002422E000
:1015F00000251CE004EB06104F49095C80202841BF
:10160000014041B108EB040291B27A1990B25A46F6
:1016100000F047F909E0D34507D008EB040291B286
:101620007A1990B2524600F03CF9681CC5B2082DF8
:10163000E0DB601CC4B2102CDADB07F1080087B2D3
:1016400009F1010971E0002668E006EB06103B494C
:1016500011F8100099F8001088425DD106EB0610D1
:10166000364901EB4000407899F80110884253D187
:1016700000244FE0002520E006EB06102F4901EB87
:101680004000801C10F8141080202841014041B116
:1016900008EB040291B27A1990B25A4600F001F9AF
:1016A00009E0D34507D008EB040291B27A1990B251
:1016B000524600F0F6F8681CC5B2082DDCDB0025A8
:1016C00024E006EB06101D4901EB4000801C0121BF
:1016D00001EB4401405C80212941084048B108EBFE
:1016E000040291B27A19083290B25A4600F0D9F841
:1016F0000AE0D34508D008EB040291B27A19083207
:1017000090B2524600F0CDF8681CC5B2082DD8DB67
:10171000601CC4B2102CADDB701C86B2092E94DBA9
:1017200009F1020907F1100087B299F800000028BA
:101730007FF444AFBDE8F88FA44B0008865600083C
:101740002DE9FC4104460D4616461F46DDF8208073
:1017500001203B4632462946CDE900802046FFF76E
:1017600023FFBDE8FC8100002DE9F05F07468846B5
:1017700092469946002531E000242BE019490A9849
:1017800001EBC01000EB850010F804B000261DE04E
:101790008020304100EA0B0050B108EB050291B205
:1017A00007EBC402324490B2524600F07AF80BE0E4
:1017B000CA4509D008EB050291B207EBC4023244D6
:1017C00090B24A4600F06DF8701CC6B2082EDFDBFE
:1017D000601CC4B2042CD1DB681CC5B2202DCBDB4D
:1017E000BDE8F09F855100082DE9FF4F83B080468A
:1017F00089464946404600F05AFB0598A0EB08058B
:101800000698A0EB0906002D02DB0120029003E000
:101810004FF0FF3002906D42002E02DB012001905C
:1018200003E04FF0FF30019076424FEA450A4FEA5D
:10183000460BB54219DDABEB0504002712E0494623
:101840004046109A00F02DF8002C05DBA4EB0A04AA
:10185000019848441FFA80F95C44029840441FFAFA
:1018600080F87F1CAF42EADD18E0AAEB06040027EF
:1018700012E049464046109A00F013F8002C05DBB0
:10188000A4EB0B04029840441FFA80F854440198DA
:1018900048441FFA80F97F1CB742EADD07B0BDE873
:1018A000F08F70B504460D461646681C83B2601C66
:1018B00082B22946204600F0CFFA304600F06AF99D
:1018C00070BD2DE9F04706460F4614461D46DDF86B
:1018D00020A07819401E83B23019401E82B23946CA
:1018E000304600F0B9FA2C2000F0FCFA4FF0000866
:1018F0000BE04FF0000904E0504600F04BF909F10D
:101900000109A945F8D308F10108A045F1D3BDE8C4
:10191000F08700BFFEE7000010B540210B48FFF73D
:101920000DFE00F0CDFD80210848FFF707FE0220E4
:1019300003F080F840210548FFF702FE052003F080
:1019400079F840210148FFF7F9FD10BD000C014076
:1019500008B54020ADF8000003208DF802001020EB
:101960008DF8030069460B48FFF702FD14208DF83F
:1019700003008020ADF8000069460648FFF7F8FC38
:1019800040210448FFF7DCFD80210248FFF7D8FD25
:1019900008BD0000000C014010B540210B48FFF7C6
:1019A000CDFD00F08DFD80210848FFF7C9FD022024
:1019B00003F040F840210548FFF7C2FD052003F081
:1019C00039F840210148FFF7B9FD10BD000C014076
:1019D00070B50546002400F065FD002618E04021A2
:1019E0001048FFF7ABFD022003F024F840210D481A
:1019F000FFF7A6FD6006040E80210A48FFF78CFD64
:101A000008B1601CC4B2012003F014F8701CC6B207
:101A1000082EE4DB15B9FFF7BFFF01E0FFF77CFFFD
:101A2000204670BD000C014070B5044600F048FD32
:101A300040211548FFF782FD002521E004F08000D9
:101A4000002804DD80211048FFF77AFD03E08021A3
:101A50000D48FFF773FD6006040E022002F0EAFF56
:101A600040210948FFF76CFD022002F0E3FF40210E
:101A70000548FFF763FD022002F0DCFF681CC5B2D9
:101A8000082DDBDB70BD0000000C014010B500F03C
:101A900017FD80210A48FFF753FD40210848FFF752
:101AA0004FFD052002F0C6FF80210548FFF746FDE7
:101AB000062002F0BFFF40210148FFF73FFD10BDA7
:101AC000000C014010B500F0FBFC40210A48FFF774
:101AD00035FD80210848FFF731FD40210648FFF71A
:101AE0002FFD062002F0A6FF80210348FFF728FD06
:101AF000062002F09FFF10BD000C014010B500242D
:101B000000F0D0FC80211148FFF71AFD012002F0FF
:101B100091FF40210D48FFF713FD012002F08AFFDD
:101B200007E0601CC4B2FA2C03DDFFF7CBFF0120F5
:101B300010BD80210548FFF7EFFC0028F1D14021BE
:101B40000248FFF7FBFC0020F2E70000000C014018
:101B500008B50121084600F09FFB01210B48FFF763
:101B600093FC0121082000F097FB0B20ADF800004A
:101B700003208DF8020010208DF803006946044808
:101B8000FFF7F6FB00F094FA08BD000000043000F7
:101B9000000C014010B5044600F0D8FA02200549B7
:101BA0000860201200F0D1FCE0B200F0CEFC00F0A2
:101BB000D2FA10BD100C014070B506467F239F225B
:101BC0000021084600F048F92C2000F08BF9002491
:101BD00008E0002503E03046FFF7DCFF6D1C802D98
:101BE000F9D3641CA02CF4D370BD10B50446601C5E
:101BF00000B90124FFF7ACFF00F01CF9112000F040
:101C000071F9782002F0F8FEB12000F06BF90120A4
:101C100000F058F92C2000F055F92D2000F052F971
:101C2000B22000F05FF9012000F04CF92C2000F008
:101C300049F92D2000F046F9B32000F053F90120B6
:101C400000F040F92C2000F03DF92D2000F03AF989
:101C5000012000F037F92C2000F034F92D2000F09D
:101C600031F9B42000F03EF9072000F02BF9C02034
:101C700000F038F9A22000F025F9022000F022F946
:101C8000842000F01FF9C12000F02CF9C52000F0DD
:101C900019F9C22000F026F90A2000F013F90020FB
:101CA00000F010F9C32000F01DF98A2000F00AF9B5
:101CB0002A2000F007F9C42000F014F98A2000F06F
:101CC00001F9EE2000F0FEF8C52000F00BF90E201F
:101CD00000F0F8F8362000F005F9012C02D0022CB3
:101CE00008D103E0602000F0EDF800BFA02000F074
:101CF000E9F800BFC02000F0E5F800BF00BFE02019
:101D000000F0F0F80F2000F0DDF81A2000F0DAF80B
:101D10000F2000F0D7F8182000F0D4F82F2000F0A2
:101D2000D1F8282000F0CEF8202000F0CBF82220B7
:101D300000F0C8F81F2000F0C5F81B2000F0C2F822
:101D4000232000F0BFF8372000F0BCF8002000F09E
:101D5000B9F8072000F0B6F8022000F0B3F8102020
:101D600000F0B0F8E12000F0BDF80F2000F0AAF874
:101D70001B2000F0A7F80F2000F0A4F8172000F0B7
:101D8000A1F8332000F09EF82C2000F09BF82920C9
:101D900000F098F82E2000F095F8302000F092F82E
:101DA000302000F08FF8392000F08CF83F2000F050
:101DB00089F8002000F086F8072000F083F803205F
:101DC00000F080F8102000F07DF82A2000F08AF85A
:101DD000002000F077F8002000F074F8002000F0F8
:101DE00071F87F2000F06EF82B2000F07BF80020C7
:101DF00000F068F8002000F065F8002000F062F8BC
:101E00009F2000F05FF8F02000F06CF8012000F057
:101E100059F8F62000F066F8002000F053F83A2058
:101E200000F060F8052000F04DF8292000F05AF885
:101E300010BD000010B5082006490860642002F0BB
:101E4000DBFD08200349091F0860322002F0D4FDA1
:101E500010BD0000140C01402DE9F04105460C4670
:101E600016461F462A2000F03DF8002000F02AF810
:101E7000E8B200F027F8002000F024F8B11CC8B246
:101E800000F020F82B2000F02DF8002000F01AF8C8
:101E9000E0B200F017F8002000F014F8791CC8B286
:101EA00000F010F82C2000F01DF8BDE8F08170B5AE
:101EB00004460D462B46224629462046FFF7CCFF16
:101EC00070BD000010B5044600F040F9022004493E
:101ED0000860204600F039FB00F03DF910BD00001D
:101EE000100C014010B5044600F030F902200449FE
:101EF0000860204600F029FB00F02DF910BD00001D
:101F0000140C014000BFFEE710B50121080700F0E6
:101F1000B3F90121C80600F0AFF9012000F07EF905
:101F20000420FEF7C5FE4AF2A551884220D00120C8
:101F300000F0E0F900BF412000F0BEF90128FAD11D
:101F4000000200F0F7F9012000F0EEF900F098FA35
:101F500000F08CFA47F6FF7000F078FA00F086FA8D
:101F600000F030F84AF2A5510420FEF7AFFE03E07E
:101F700000F086FA00F07AFA10BD000010B58CB0BF
:101F800000F012FA00F5E1400B900BA8FEF7F2FA10
:101F900004462C2221466846FEF7B9FA059800F25D
:101FA0006C70074908800498401C4880039888801A
:101FB0000298C88001980881009848810CB010BD33
:101FC0006C05002010B58CB0384840880C2803DD23
:101FD00001203649488006E034484088012802DA6A
:101FE0000C2032494880314880881F2803DD0120B9
:101FF0002E49888006E02D488088012802DA1C20BE
:102000002A4988802948C0884FF6FF71884203D149
:1020100017202649C88006E02448C088172802DD1A
:1020200000202249C880214800894FF6FF7188426C
:1020300003D13B201D49088106E01C4800893B284C
:1020400002DD002019490881184840894FF6FF71C8
:10205000884203D13B201549488106E01348408956
:102060003B2802DD00201149488110480088A0F279
:102070006C7006900D484088401E05900B48808883
:1020800004900A48C08803900848008902900748D5
:102090004089019001A8FEF792FAA0F5E14420469C
:1020A00000F0C6F900F0E2F90CB010BD6C0500209C
:1020B00000B587B00121042000F0EEF801210803EB
:1020C00000F0EAF810208DF81B00ADF8180003208E
:1020D0008DF81A0006A91B48FFF74AF918208DF859
:1020E0001B00A020ADF8180003208DF81A0006A9E7
:1020F0001448FFF73DF94FF48270ADF806004FF435
:102100004040ADF804000020ADF80800ADF8120022
:10211000ADF81000ADF80A00ADF80C004FF40070F7
:10212000ADF80E000720ADF8140001A9064800F034
:10213000EEF90121044800F0D5F9012000F020F863
:1021400007B000BD000801400030014010B500207C
:1021500000F016F810BD10B5012000F011F810BD08
:1021600010B504460548848100BF8021034800F073
:10217000C5F90128F9D0002010BD00000030014051
:1021800010B50446224610210148FFF7DBF910BDC7
:10219000000801407047000070B5002100230F22A5
:1021A000C47804B3154C246804F4E064C4F5E06416
:1021B000210AC1F10403CA40447804FA03F1847887
:1021C0001440214309010E4C0678A155047804F00F
:1021D0001F050124AC4005786D11AD0005F1E02527
:1021E000C5F8004109E0047804F01F050124AC4063
:1021F000044D0678761145F8264070BD0CED00E0E0
:1022000000E400E080E100E002490143024A11607D
:10221000704700000000FA050CED00E0014908627B
:102220007047000000000E4210B5024600200C4B23
:10223000186820F00300104318600A4B1B6843F035
:102240000403084C2360012901D130BF00E020BF06
:10225000044B1B6823F00403024C236010BD0000F4
:102260000070004010ED00E0014908607047000078
:10227000A0000E427047000029B1064AD26902430D
:10228000044BDA6104E0034AD2698243014BDA610C
:10229000704700000010024029B1064A92690243CB
:1022A000044B9A6104E0034A92698243014B9A61AC
:1022B000704700000010024010B5014600220023C4
:1022C00000204A11012A02D1094C236806E0022AA3
:1022D00002D1074C236A01E0054C636A01F01F023A
:1022E000012494401C400CB1012000E0002010BDEE
:1022F0000010024000210B4A11700A4A203A82F86D
:102300002010012802D0042808D103E00121054A49
:10231000117004E00521034A117000E000BF00BF06
:10232000704700002010024001490860704700001B
:102330003C0442420249096A0143014A1162704762
:102340000010024010B5022000F038F848B14FF4F8
:102350000030FEF771FF00F089F800F0F7FF00F0A1
:1023600085F8042000F004F800F080F810BD0000AB
:10237000024909888143014A1180704704280040BE
:102380000348008840F010000149088070470000B1
:1023900004280040034800884FF6EF7108400149C7
:1023A0000880704704280040002103480188001F6E
:1023B000008841EA004070471C2800400146002088
:1023C000064A12880A40D0B2044A121F12880A40F4
:1023D00012B108B1012000E000207047042800403D
:1023E00010B50120FFF7EAFF10B10120FFF7C0FF91
:1023F00010BD000029B1064A12880243044B1A801E
:1024000004E0034A12888243014B1A80704700009F
:102410000028004000B50246FFF7B2FF100C034948
:102420000880091D0A80FFF7B5FF00BD2028004085
:1024300000B50246FFF7A4FF100C03490880091DF0
:102440000A80FFF7A7FF00BD1828004000B502462C
:10245000FFF796FFC2F3034003490880091D0A8075
:10246000FFF798FF00BD00000828004000BF0348A8
:10247000008800F020000028F9D0704704280040B0
:10248000074800884FF6F77108400549088000BFEB
:102490000348008800F008000028F9D070470000C9
:1024A0000428004008B58020ADF8000048208DF8D1
:1024B000030069460148FEF75BFF08BD000C0140C0
:1024C00008B58020ADF8000003208DF80200102030
:1024D0008DF8030069460248FEF74AFF08BD000078
:1024E000000C014021B1028842F04002028004E069
:1024F00002884FF6BF731A400280704702460020E0
:1025000013890B400BB1012000E00020704710B58B
:102510000022028802F441520B884C8823438C88A5
:102520002343CC8823430C8923434C8923438C8940
:102530002343CC8923431A430280838B4FF2FF74D9
:10254000234083830B8A038210BD10B504462046C6
:10255000FFF706FE10BD704710B500F001F810BD82
:102560000CB50020019000903348006840F48030A2
:102570003149086000BF3048006800F40030009026
:102580000198401C0190009818B90198B0F5A06F0F
:10259000F1D12948006800F4003010B1012000900A
:1025A00001E0002000900098012843D123480068F2
:1025B00040F01000214908600846006820F0030040
:1025C00008600846006840F0020008601A48406849
:1025D000194948600846406848600846406840F429
:1025E000806048600846406820F47C1048600846D7
:1025F000406840F4E81048600846006840F0807089
:10260000086000BF0C48006800F000700028F9D096
:102610000948406820F003000749486008464068C0
:1026200040F00200486000BF0348406800F00C0022
:102630000828F9D10CBD0000001002400020024023
:102640007047000010B51348006840F001001149C0
:10265000086008464068104908400E49486008462E
:1026600000680E4908400B4908600846006820F4DD
:10267000802008600846406820F4FE0048604FF45F
:102680001F008860FFF768FF4FF000600449086092
:1026900010BD0000001002400000FFF8FFFFF6FE32
:1026A00008ED00E010B540F22551214800F059F83E
:1026B00001283BD11E4800F07EF8C4B2242C0CD176
:1026C0001C48007848B91C48007848BB01201949CB
:1026D000087000201949087022E016480078012887
:1026E0000ED10D2C03D102201249087018E01348B6
:1026F00001780078401C114A1070114844540FE0D2
:102700000C48007802280BD10A2C09D10020094975
:1027100008700B49094A127888540120064908704C
:1027200040F22551024800F00DF800BF10BD000036
:1027300000440040C50A0020C40A0020C60A002048
:10274000A40C002010B50022002340F66A14A14218
:1027500000D100BF0A1201249440A3B2DC430480DC
:1027600010BD70B50246002400230025002040F66D
:102770006A16B14200D100BFC1F3421501F01F0338
:10278000012606FA03F3012D02D19689334006E0B3
:10279000022D02D1168A334001E0968A33400C1292
:1027A000012606FA04F41688344013B10CB1012056
:1027B00000E0002070BD01468888C0F30800704723
:1027C00000BFFEE72DE9F04F8BB00546681C30B125
:1027D000002D01DB142D02DD0BB0BDE8F08F4FF6AC
:1027E000FF70FFF7E9F9D1A04FF6FF73002208212F
:1027F00000900A20FEF7C5FE00201C23A0221946E7
:102800000090FEF7F1FF002D05DBCB4800EB051330
:102810000FCB07AC0FC400244FF001090020049037
:102820000590069082468346079888B9002107A83C
:10283000817141718DF8201000208DF823006FF018
:102840007040099000200A90BC4807904FF0010B9F
:102850002A46BBA104A8FDF7E7FC04A84FF6FF73C6
:102860000022082100906E20FEF78BFE59E1BAF19C
:10287000000F00D056E10020B2A14FF6FF730246D0
:10288000CDE9001028210A20FEF761FE0CB90120D5
:1028900000E000209DF8231009B1ADA100E0ADA13A
:1028A0004FF6FF730022CDE9001028215020FEF7DB
:1028B0004EFE0020A8A14FF6FF730246CDE900109E
:1028C0003C210A20FEF743FE9DF9220000909DF96D
:1028D00021309DF92020A2A104A8FDF7A5FC00202D
:1028E00004A94FF6FF730246CDE900103C210846CB
:1028F000FEF72DFE012C39DB032C37DC00208DF890
:1029000015008DF81200012C04D0022C0ED0032CDF
:1029100026D118E0012004A94FF6FF730022CDE96B
:1029200000103C210846FEF712FE19E001210DF1CE
:1029300013004FF6FF730022CDE900013C21542023
:10294000FEF705FE0CE001210DF116004FF6FF73B6
:102950000022CDE900013C216C20FEF7F8FD00BF0C
:1029600000BF3A208DF815008DF81200D6E030BF78
:10297000012002F05FF84FF480417D48FEF7CCFD66
:1029800008B9012000E0002003904FF4004178488E
:10299000FEF7C2FD08B9012000E0002002904FF4CC
:1029A00080717448FEF7B8FD08B9012000E00020EE
:1029B00006464FF400716F48FEF7AEFD08B90120DE
:1029C00000E0002007464FF480616A48FEF7A4FD4E
:1029D00008B9012000E0002080461EB917B9B8F1FF
:1029E000000F01D0634A00E0614A104616B14FF46F
:1029F000807210E017B14FF400720CE0B8F1000FD4
:102A000002D04FF4806206E0039A12B14FF4804284
:102A100001E04FF40042114601F0AEFF039828B1E7
:102A2000601E00B2041E00DA032478E0029830B180
:102A3000601C00B20446032800DD00246FE006B9E4
:102A40009FB34FF0010B44B99DF8230008B9012052
:102A500000E000208DF8230061E00EB1012001E0CC
:102A60004FF0FF308146601E08A9085C484442B21E
:102A7000601E0A540856012C01D1172100E03B21A9
:102A8000884204DD0022601E08A90A540CE0601E82
:102A900008A90856002807DA012C01D1172200E006
:102AA0003B22601E08A90A5439E0FFE7B8F1000F85
:102AB00031D04FF480612F4801F05EFFBBF1000F71
:102AC0001FD00020FFF778F82BA000234FF4FC6202
:102AD0000A2100900846FEF754FD642001F08CFFA7
:102AE000154800EB051007A991E80E10A0E80E109C
:102AF0004FF4A07210494FF48070FEF78BF800F08D
:102B0000E1FB322001F078FF4EF67D70FFF754F8BC
:102B10004FF0010A03E00A2001F08CFF27E700BF15
:102B200000BFA4E600BF00BF56E60000456469741C
:102B300020416C61726D0000400B002083C4107F47
:102B400025640000456E61626C65643A0000000017
:102B50006F6E20006F66660054696D653A00000074
:102B6000253032643A253032643A25303264000030
:102B7000000C014000080140536176696E672063D4
:102B800068616E676573000088B04FF6FF70FFF7ED
:102B900013F84FA207CA05AB07C350A207CA02AB7E
:102BA00007C30020FFF708F891E0322001F024FF6E
:102BB0004D48007810B94D48006828B100F01CFA63
:102BC0000020FEF7F9FF82E0FFF7D8F948480088B7
:102BD0004849886046488078087145480079C8703F
:102BE0004348807988704248007A48704048807A2B
:102BF00008700846007800900846437882783EA125
:102C000005A8FDF711FB4048006801283CD1394870
:102C100080780A2190FBF1F084B200234FF6FF7216
:102C200028210F200094FEF79FFD324880780A216A
:102C300090FBF1F201FB120084B200234FF6FF7209
:102C400028212F200094FEF78FFD2A4840780A2182
:102C500090FBF1F084B200234FF6FF72282155203B
:102C60000094FEF781FD234840780A2190FBF1F2A1
:102C700001FB120084B200234FF6FF722821752059
:102C80000094FEF771FD08E005A800234FF6FF72DF
:102C9000282100902D20FEF774FC1648C078009083
:102CA0001448037919A1826802A8FDF7BDFA02A8A9
:102CB00000234FF6FF725A2100902520FEF761FC99
:102CC00016480068002801DD00F0F2FF00BF6CE745
:102CD00030303A30303A303000000000313937308F
:102CE0002D30312D30310000170000201800002059
:102CF0006C050020C80A0020253032643A253032A5
:102D0000643A2530326400000C0000202530346421
:102D10002D253032642D2530326400001000002053
:102D200000B58BB001210420FFF7B6FA012108207D
:102D3000FFF7B2FA01210846FFF7AEFA4FF48040E0
:102D4000ADF8280003208DF82A0048208DF82B00CC
:102D50000AA96948FEF70CFB4FF480416648FEF76C
:102D6000EFFB4FF40040ADF8240003208DF826005F
:102D700048208DF8270009A95F48FEF7F9FA4FF4BB
:102D800000415D48FEF7DCFB4FF48070ADF8200099
:102D900003208DF8220048208DF8230008A9574809
:102DA000FEF7E6FA4FF480715448FEF7C9FB4FF482
:102DB0000070ADF81C0003208DF81E0048208DF82F
:102DC0001F0007A94D48FEF7D3FA4FF400714B4896
:102DD000FEF7B6FB4FF48060ADF8180003208DF8C5
:102DE0001A0048208DF81B0006A94448FEF7C0FAD7
:102DF0004FF480614148FEF7A3FB0120ADF81400B9
:102E000003208DF8160048208DF8170005A93B48CF
:102E1000FEF7AEFA01213948FEF792FB0E210120A0
:102E2000FEF786FA0F210120FEF782FA0821002022
:102E3000FEF77EFA09210020FEF77AFA0A21002027
:102E4000FEF776FA00210846FEF772FA4FF480602A
:102E5000039001208DF8120000208DF810000C2046
:102E60008DF8110003A8FEF701FA4FF4804003909B
:102E700003A8FEF7FBF94FF40040039003A8FEF708
:102E8000F5F94FF48070039003A8FEF7EFF94FF4C3
:102E90000070039003A8FEF7E9F90120039003A84E
:102EA000FEF7E4F94FF4A060FFF7AEF928208DF8A3
:102EB000080001208DF80B008DF809008DF80A003C
:102EC00002A8FFF769F917208DF8080002A8FFF79C
:102ED00063F906208DF8080002A8FFF75DF908A045
:102EE0004FF4FC634FF6FF72462100900A20FEF774
:102EF00048FB0BB000BD0000000C01400008014081
:102F00005B4F4B5D204B6579626F6172640000001E
:102F10000EB54FF4A07236494FF48070FDF73FFEB6
:102F2000002024E0324901EB00110968314A914246
:102F30001CD000222E4901EB00118A712C4901EBB3
:102F400000114A712A4901EB00110A71284901EB6D
:102F50000011CA60264901EB0011CA71244901EB36
:102F600000118A60224901EB00110A60401C1428FC
:102F7000D8D3FFF785FAFFF779FA01210220FFF78E
:102F800039FAFFF773FA03208DF8080002208DF854
:102F9000090000208DF80A0001208DF80B0002A81E
:102FA000FFF7FAF829208DF8080001208DF80900B4
:102FB00000208DF80A0001208DF80B0002A8FFF711
:102FC000EBF84FF40030FEF737F900208DF80400DD
:102FD0004FF40030009008208DF8050001208DF896
:102FE00006006846FEF742F900F0B8F90EBD000091
:102FF000400B002083C4107F10B539480068332887
:1030000036D006DC10280ED031281ED0322864D1EC
:103010002AE0A0F20110002839D0A02848D0B0F54D
:10302000F85F5AD148E00320FDF7FCFE0020FDF7D1
:10303000F9FE07E00220FDF7F5FE29480068102898
:1030400000D000E0F6E700BF48E0012000F00AFFF2
:1030500007E0022000F006FF21480068312800D078
:1030600000E0F6E700BF39E010201D49086035E0B8
:10307000012000F0DFFA07E0022000F0DBFA184838
:103080000068332800D000E0F6E700BF26E001200A
:1030900001F098F909E0022001F094F91048006865
:1030A00040F20111884200D000E0F4E700BF15E0D3
:1030B000012000F0C5F911E0012000F0E3F909E07A
:1030C000022000F0DFF90648006842F20101884260
:1030D00000D000E0F4E700BF00E000BF00BF10BD7B
:1030E0001800002008B54FF4FA7001F085FC4FF489
:1030F00000515D48FEF722FA5C480068FEF775FD56
:103100004FF4FA7001F078FC4FF400515648FEF786
:1031100017FA4FF400515448FEF710FA4EF67D703E
:10312000FEF74AFD01205249086041034E48FEF770
:1031300007FA50A04EF67D734FF478420A210090B2
:103140000846FEF71EFA00201C23A0221946009014
:10315000FEF74AFB4BA04EF67D731F221E21009006
:103160000A20FEF70EFA642001F046FC4FF40051ED
:103170003D48FEF7E3F9FEF7C7FE46A04FF4FC63B7
:103180004FF6FF72322100900A20FEF7FAF94FF451
:1031900000513548FEF7D4F94FF400513248FEF79C
:1031A000CDF9FFF7BDFD4FF400512F48FEF7C8F9E8
:1031B0004FF400512C48FEF7C1F9FDF7ECFC38A0A4
:1031C0004FF4FC634FF6FF725A2100900A20FEF77D
:1031D000D8F94FF400512448FEF7B2F94FF40051EA
:1031E0002148FEF7ABF9FFF793FE31A04FF4FC63E3
:1031F0004FF6FF726E2100900A20FEF7C2F91120EF
:10320000FDF7DEFC2E4908604FF400511648FEF72A
:1032100097F903241DE00A20B4FBF0F085B24FF6C5
:10322000FF731F220A215E200095FEF79DFA0A20F7
:10323000B4FBF0F100FB11454FF6FF731F2201466E
:1032400078200095FEF790FA4FF47A7001F0D4FBE5
:10325000641E002CDFD14FF6FF70FEF7ADFC01E0DD
:10326000FFF792FCFCE70000001001400400002082
:10327000100C0140496E697469616C697A696E6706
:103280002E2E2E0053746172747570204C6F673A45
:10329000000000005B4F4B5D2052544300000000D3
:1032A0005B4F4B5D2041543234437878000000007E
:1032B0005B4F4B5D204D79416C61726D00000000E9
:1032C0000C00002070B5002422E01349601C01EBC3
:1032D0008015E01C2860224610A1281DFCF7A4FFE1
:1032E000114800EB041000681049884200D00EE03D
:1032F0000D4800EB0410C07908B10DA000E00EA04D
:10330000024610A105F11800FCF78EFF00BF641CF7
:10331000142CDAD370BD000078050020416C617276
:103320006D2025642E000000400B002083C4107F18
:10333000454E41424C45440044495341424C45446A
:10334000000000005B25735D0000000040F2A1104A
:103350000149086070470000180000202DE9F04185
:103360008EB04FF0FF350020FFF754F8FFF77EF8DE
:103370000026FFF719F80746002444E0284800EB30
:10338000041000682749884200D03BE0244800EB45
:103390000410C07900B935E023480088089022481D
:1033A0004088401E07902048808806901C4800EB0B
:1033B000041090F904000590194800EB041090F9EE
:1033C00005000490164800EB041090F906000390E5
:1033D00003A8FDF7F4F80646BE4201D2134806449E
:1033E000AE4200D2F51E1249601C01EB8018039812
:1033F000CDE900050FA108F12C00DDE90432FCF74E
:1034000013FF00BF641C142CB8D3FFF75BFF25B17A
:10341000681C10B12846FEF7FDFF0EB0BDE8F08134
:10342000400B002083C4107F6C05002080510100F8
:103430007805002025642025642D25643A25640044
:1034400038B504464FF6FF70FEF7B6FB09A04FF6FD
:10345000FF734FF478420A2100900846FEF791F876
:1034600000224FF48061054801F02EF80020044945
:10347000086038BD414C41524D0000000008014039
:10348000180000202DE9FC4104465C48007800F05B
:10349000010048B9594801F080FA28B1584801F0B4
:1034A00059FA5648AFF3008000BF5548007F58B91D
:1034B00003225449524801F043FA53A0504908618D
:1034C0000020886101200875022C7CD10020019029
:1034D0000025002785E001A9494801F0D3F80546F9
:1034E00005F00F0000B97DE005F0F00008B90120FB
:1034F000019000270198012804D0022807D0042851
:103500006BD13FE0312044490860012766E04FF667
:10351000FF70FEF751FB41A04FF6FF734FF4784266
:103520000A2100900846FEF72CF8642001F064FAA6
:10353000002613E04FF400613A48FEF701F84FF41B
:103540007A7001F059FA4FF400613648FDF7F6FF42
:103550004FF47A7001F050FA701C86B20A2EE9DB43
:1035600031A04FF6FF731F221E2100900A20FEF7A4
:1035700008F84FF47A7001F03FFA0121204801F079
:103580001FF92BE04FF6FF70FEF716FB23A04FF656
:10359000FF734FF478420A2100900846FDF7F1FFCF
:1035A0000A2001F029FA4FF4005200210846FDF7E5
:1035B00043FB1DA04FF6FF731F221E2100900A201F
:1035C000FDF7DFFF00E010E04FF47A7001F014FA2D
:1035D00001210B4801F0F4F800E000BF00BF07B183
:1035E00000E078E700BFBDE8FC81012C03D1012198
:1035F000034801F0E5F800BFF5E70000640500208E
:10360000F80A00205C020020466163746F72792022
:103610004F7074696F6E73001800002052756E6EE3
:10362000696E67000008014046696E6973686564E9
:10363000000000002DE9F04F8DB00746FE480078ED
:1036400000F0010048B9FC4801F0A7F928B1FB4897
:1036500001F080F9F848AFF3008000BFF748007F21
:1036600058B90922F649F54801F06AF9F5A0F3497D
:103670000861F748886101200875022F7ED100207B
:103680000C9082460B90D9E20CA9EC4800F0FAFFAE
:1036900082460AF00F0000B9D1E20AF0F00008B942
:1036A00001200C9000200B900C98092867D2DFE8CD
:1036B00000F06605660B66F3F2F1F0001020E549B4
:1036C000086001200B90B5E24FF6FF70FEF774FA28
:1036D000E1A04FF6FF7300220A2100900846FDF793
:1036E00050FFFEF74BFCE0A04FF6FF7300223221A3
:1036F00000900A20FDF745FFDDA04FF6FF73002282
:10370000502100900A20FDF73CFF00200790089010
:1037100009900A900490059006900024002542E14B
:10372000D54880880090D44843880288D3A107A850
:10373000FCF77AFDD04840890090CF480389C288C1
:10374000D2A104A8FCF770FD07A84FF6FF73002272
:10375000322100903C20FDF714FF04A84FF6FF73C0
:103760000022502100903C20FDF70BFFC4BB00203D
:103770008DF823008DF820003DB101E063E258E2AE
:10378000012D0ED0022D25D118E0012007A94FF6FA
:10379000FF730022CDE9001032213C20FDF7D7FE57
:1037A00018E001210DF121004FF6FF730022CDE951
:1037B000000132216420FDF7CAFE0BE0012109A8B7
:1037C0004FF6FF730022CDE9000132217C20FDF786
:1037D000BEFE00BF00BF2D208DF823008DF8200015
:1037E000012C36D100208DF815008DF8120025B17E
:1037F000012D0ED0022D26D118E0012004A94FF68C
:10380000FF730022CDE9001050213C20FDF79FFE00
:1038100019E001210DF113004FF6FF730022CDE9ED
:10382000000150215420FDF792FE0CE001210DF122
:1038300016004FF6FF730022CDE9000150216C20E5
:10384000FDF785FE00BF00BF3A208DF815008DF80A
:10385000120030BF012001F0EDF84FF480418F4895
:10386000FDF75AFE08B9012000E0002083464FF41E
:1038700000418A48FDF750FE08B9012000E0002011
:1038800003904FF480718648FDF746FE28B9012069
:1038900004E03BE108E1ADE08CE0002006464FF497
:1038A00000717F48FDF738FE08B9012000E00020D4
:1038B00080464FF480617A48FDF72EFE08B901205A
:1038C00000E0002081462EB9B8F1000F02D1B9F115
:1038D000000F01D0724A00E0704A104616B14FF452
:1038E000807213E0B8F1000F02D04FF400720DE0C7
:1038F000B9F1000F02D04FF4806207E0BBF1000F76
:1039000002D04FF4804201E04FF40042114601F032
:1039100033F8BBF1000F0AD0681E40B2051E06DA6C
:103920000225012C01D0012000E00020044603986C
:1039300058B1681C40B20546022806DD0025012C5E
:1039400001D0012000E00020044616B9B8F1000FB4
:103950001DD00EB1012001E04FF0FF300290012C8C
:1039600001D1032000E000202844434931F8101021
:103970000298084480B2012C01D1032100E000210B
:1039800029443D4A22F81100FEF71CFB00BFB9F1A3
:10399000000F05D04FF48061414800F0EDFF03E0D7
:1039A0000A2001F047F8BBE600BF0121234800F0E0
:1039B00007FF3FE13B480068022801D1012000E0F9
:1039C0000220384908604FF480513448FDF7B8FDB3
:1039D0004FF4FA7001F010F84FF480512F48FDF7C2
:1039E000ADFD30480068FEF700F90121134800F0F2
:1039F000E7FE1FE1FEF71EFA012028491431086096
:103A000001032648FDF79CFD4FF47A7000F0F4FFA7
:103A100001210846FEF708FCFEF714FE2148006865
:103A2000FEF7E3F801201D49103108600121034829
:103A300000F0C6FEFEE00000680500201C0B002020
:103A40001C03002053657474696E677300000000E6
:103A5000EFCDAB00180000205365742044617465FD
:103A60002054696D65000000446174653A000000EF
:103A700054696D653A0000006C05002025303464FF
:103A80002D253032642D253032640000253032641B
:103A90003A253032643A253032640000000C01408F
:103AA00000080140040000206B480068012801D094
:103AB000012000E0002068490860084601781120D4
:103AC000FDF7CFF865A04FF6FF7300222821009084
:103AD0000A20FDF756FD65A04FF6FF73002238213E
:103AE00000900A20FDF74DFD63A04FF6FF73002202
:103AF000482100900A20FDF744FD4FF4FA6000F0E1
:103B00007BFF0021604800F05BFE93E00020FEF7A1
:103B100053F85EA000234FF6FF720A21009008467A
:103B2000FDF72FFD5CA000234FF6FF721E210090D1
:103B30002820FDF726FD002474E030BF012000F0AE
:103B400079FFA0B200234FF6FF723C2100900A20BB
:103B5000FDF70AFE5348007800234FF4FC623C2135
:103B600000903220FDF700FE4FF480414E48FDF7F3
:103B7000D3FC08B9012000E0002005464FF40041C5
:103B80004948FDF7C9FC08B9012000E000200646BD
:103B90004FF480714548FDF7BFFC08B9012000E0F3
:103BA000002080464FF400714048FDF7B5FC08B98D
:103BB000012000E0002081464FF480613B48FDF782
:103BC000ABFC08B9012000E000208346B9F1000FEA
:103BD0000CD04FF40071354800F0CEFE1CB1012C22
:103BE00001D0032C01D1641C00E01CE0B8F1000FEF
:103BF00012D04FF480712D4800F0BEFE022C01D18E
:103C0000641C09E0042C06D12648007880F00100ED
:103C10002449087007E006E01DB916B9BBF1000F92
:103C200000D000E089E700BF0121174800F0C8FD7F
:103C300000E000BF00BF0B9800B100E024E500BF2A
:103C40000DB0BDE8F08F012F03D101210E4800F027
:103C5000B7FD00BFF4E700000C00002054686520A9
:103C60006F7065726174696F6E000000636F6D70D4
:103C70006C657465640000007375636365737366D7
:103C8000756C6C792E0000001C0B0020507265735F
:103C9000732061206B6579005B3031313031305DEC
:103CA0000000000008000020000C01400008014056
:103CB00030B59BB000201A905AA04EF67D734FF499
:103CC000FC62002100905F20FDF75BFC5848006813
:103CD000401C574908603221B0FBF1F201FB120091
:103CE00048B954A04EF67D734FF4FC620021009059
:103CF0005F20FDF746FC5248007800287ED05148EE
:103D00004FF6E0730022114600901046FDF739FC93
:103D10004C4CA07847287ED1E07847287BD1207989
:103D2000412878D100BF00200E90A0798DF838008E
:103D3000E0798DF8390000200D90207A8DF834005C
:103D4000607A8DF8350000200C90A07A8DF8300054
:103D5000E07A8DF83100FEF711F93B4800881490A5
:103D60003948408813903848808812900EA8FCF794
:103D7000C1FB11900DA8FCF7BDFB10900CA8FCF73F
:103D8000B9FB0F900FA8FCF71AFC1A902F48B0F956
:103D90000000C0EB4011C1EB00201A9901EB0010AC
:103DA0001A901AA8FCF7E6FB05462C22294601A822
:103DB000FCF7ADFB244906980880059848800498D4
:103DC00088800398C8800298088101984881FEF78E
:103DD000F9F81FA04EF67D734FF4FC6200210090AD
:103DE0000846FDF7CEFB1C480068401C1A490860D5
:103DF00064280FD900200860184901E00FE00AE0AC
:103E000008604FF400511648FDF798FB4EF67D70A0
:103E1000FDF7D2FE00BF00200949087000BF1BB0AB
:103E200030BD00005570646174696E670000000069
:103E3000BC0A00204C6F6164696E672000000000BE
:103E4000C40A0020A40C00206C05002014000020EF
:103E5000446F6E6500000000C00A002010000020C2
:103E6000000C01402DE9FE4F0546E348007800F0C4
:103E7000010048B9E04800F090FD28B1DF4800F0AB
:103E800069FDDD48AFF3008000BFDC48007F58B912
:103E90000922DB49D94800F053FDDAA0D74908616F
:103EA000DB48886101200875022D75D10020029041
:103EB0008046019093E102A9D04800F0E3FB8046E0
:103EC00008F00F0000B98BE108F0F00008B90120FC
:103ED00002900020019002980B287AD2DFE800F0CF
:103EE00079060C13FCFB7979FA79F9001020C9499D
:103EF0000860012001906EE140F20110C5490860A0
:103F00000120019067E1C448007800B963E14EF6F2
:103F10007D70FDF751FEC1A04EF67D731F220A2170
:103F200000900846FDF70CFCC1A04EF67D731F22E1
:103F30001E2100900A20FDF724FBC2A04EF67D73DF
:103F40001F222E2100900A20FDF71BFBC2A04EF677
:103F50007D731F22462100900A20FDF712FBC2A0AC
:103F60004EF67D731F22562100902820FDF709FB95
:103F7000BFA01F234FF6FF72702100900A20FDF7AB
:103F800000FB00224FF48061BD4800F09DFA4EF620
:103F90007D70FDF711FE00E025E1BAA04EF67D73BD
:103FA0001F221E2100900C20FDF7EBFABAA01F2360
:103FB0004FF6FF722E2100900A20FDF7E2FABBA017
:103FC0001F234FF6FF723E2100900A20FDF7D9FA19
:103FD00000E0FFE0BAA01F234FF6FF724E210090D1
:103FE0000A20FDF7CEFA00224FF48061A44800F0C9
:103FF0006BFA4EF67D70FDF7DFFDB6A01F234FF67E
:10400000FF721E2100900A20FDF7BBFAB6A04EF603
:104010007D731F222E2100900A20FDF7B2FAB6A070
:104020004EF67D731F223E2100900A20FDF7A9FA6B
:1040300000224FF48061924800F046FA4EF67D70FF
:10404000FDF7BAFDAFA01F234FF6FF721E210090AF
:104050000A20FDF796FAB0A04EF67D731F222E219E
:1040600000900A20FDF78DFAAFA04EF67D731F2257
:104070003E2100900A20FDF784FA00224FF480616F
:104080007F4800F021FA4EF67D70FDF795FDABA05C
:104090001F234FF6FF721E2100900C20FDF771FACE
:1040A000ABA04EF67D731F222E2100900520FDF758
:1040B00068FAACA04EF67D731F223E2100900A20C4
:1040C000FDF75FFA00224FF480616D4800F0FCF9C3
:1040D00003E067E05FE057E020E04EF67D70FDF71B
:1040E0006BFDA4A01F234FF6FF721E2100900A2033
:1040F000FDF747FAA4A01F234FF6FF722E21009070
:104100000A20FDF73EFA00224FF480615C4800F07F
:10411000DBF90121394800F053FB5CE03E480078B0
:1041200000B958E09D4E4FF6FF70FDF745FD0027A2
:104130001EE04FF0000917E08023A022002108466E
:10414000FDF78AFE00240AE016F814B006EB4400DE
:1041500090F801A04BEA0A20FDF71CFD641CB4F5A1
:10416000A04FF1DB09F10109B9F1010FE4DB7F1C7C
:10417000012FDEDB01229102414800F0A5F9012167
:104180001E4800F01DFB26E000F0C4F901211B4889
:1041900000F016FB1FE042F201001E4908600120FA
:1041A000019018E07E48007808B9012000E0002066
:1041B0007B4908700846007808B17AA000E07AA030
:1041C00002467AA17E48FCF72FF800210B4800F048
:1041D000F7FA00E000BF00BF019800B100E06AE616
:1041E00000BFBDE8FE8F012D03D10121034800F07F
:1041F000E7FA00BFF5E7000060050020D40A0020C0
:104200001C0000204170706C69636174696F6E00FE
:104210007E231A0018000020080000206C388FDC74
:10422000559C6B2282995B815A1C59274EBA00001B
:1042300057686174206120637574652048796472E1
:104240006F000000417263686F6E20467572696E80
:10425000612121212100000049206C6F76652046F4
:104260006F63616C6F727300666F72657665720062
:10427000342E3020466F6E7461696E650000000058
:10428000000801402047656E7368696E20496D70B3
:1042900061637420000000005374657020496E74DF
:1042A0006F20612056617374000000004D616769E2
:1042B00063616C20576F726C64206F6600000000B1
:1042C000202020416476656E747572652020202060
:1042D0000000000047656E7368696E496D70616328
:1042E00074342E300000000020204E6577204E618F
:1042F00074696F6E3A000000202020466F6E746172
:10430000696E6500466F63616C6F72732028467535
:1043100072696E61290000002020487964726F2064
:10432000417263686F6E000054686520676F642097
:104330006F66206A75737469636500002020202011
:10434000202076342E302020202020200000000065
:104350004173204C69676874205261696E20466120
:104360006C6C730020576974686F757420526561B6
:10437000736F6E0068747470733A2F2F67656E7375
:1043800068696E2E00000000686F796F7665727341
:10439000652E636F6D2F2020000000002458000858
:1043A000160000206E00000066660000446562751D
:1043B00067204D6F64653A2020206F257300000050
:1043C00020020020F8B504463648007800F00100CD
:1043D000B0B9344800F0E1FA90B13348011D00BF94
:1043E000081F32490160002282608261C26002625D
:1043F000027742600121017500BF2A48AFF30080B7
:1044000000BF2948007F30B929A027490861002052
:10441000886101200875FEF7A1FF1522284922486E
:1044200000F08EFA022C34D10020009000250026E6
:104430002CE069461C4800F025F9054605F00F0000
:1044400000B924E005F0F00008B901200090002632
:104450000098012802D0022806D104E03120194931
:10446000086001260FE00EE00099C91E08B2FEF7B1
:10447000A9F9152212490C4800F062FA01210A48F4
:1044800000F09EF900BF00BF06B100E0D1E700BF19
:10449000F8BD012C03D10121034800F091F900BFC0
:1044A000F6E70000B80A0020800C002054F800084D
:1044B000416C61726D204D616E6167657200000034
:1044C00078050020180000202DE9F04105460E4631
:1044D00014461BE034B101210020FDF7A5FEFEF7D4
:1044E000B1F800E030BF012000F0A4FA31462846C0
:1044F000FDF712F808B9012000E00020074627B1B7
:104500003146284600F038FA01E000BFE2E700BF7C
:10451000BDE8F0812DE9FE4F0020FDF74DFB0026A0
:104520000027002550A103C9CDE9010150A00023B7
:104530004FF6FF722D2100904B20FDF722F800244A
:104540004FF001088CE01420B6FBF0F100FB116085
:1045500010B1B8F1000F60D04FF00009CA463C20FE
:10456000B5FBF0F9B5FBF0F100FB115AB9F1630F9F
:1045700003D1BAF13B0F00D1002453464A463DA176
:1045800001A8FBF751FE9DF80400303880B200907E
:1045900014B14FF6FF7001E04FF4FC6002460023B7
:1045A00028210F20FDF7E0F89DF80500303880B293
:1045B000009014B14FF6FF7001E04FF4FC6002462A
:1045C000002328212F20FDF7CFF89DF80600303872
:1045D00080B2009014B14FF6FF7001E04FF4FC6020
:1045E0000246002328215520FDF7BEF89DF807005C
:1045F000303880B2009014B14FF6FF7001E04FF4F4
:10460000FC600246002328217520FDF7ADF8B8F1C3
:10461000000F01D04FF0000800BF04B930BF4FF4C5
:1046200080611748FCF778FF00B91AE04FF48071F9
:104630001348FCF771FF30B984F001044FF4807126
:104640000F4800F099F9192000F0D6F944B1FDF7B0
:10465000ABFE0746B74203D06D1C3E464FF0010843
:1046600071E700BFBDE8FE8F303030300000000041
:104670003A0000002530326C642530326C64000052
:10468000000801402DE9F04704460D4693E030BF95
:10469000012000F0CFF94FF480414748FCF73CFF80
:1046A00008B9012000E0002006464FF400414248CE
:1046B000FCF732FF08B9012000E0002007464FF464
:1046C00080713E48FCF728FF08B9012000E0002077
:1046D00080464FF400713948FCF71EFF08B90120ED
:1046E00000E0002081464FF480613448FCF714FF5D
:1046F00008B9012000E000208246B9F1000F0FD078
:10470000E068401EE06010B96068401CE060002175
:10471000204600F055F84FF40071284800F02CF9BD
:10472000B8F1000F11D0E068401CE0606168491CDE
:10473000884201D90121E1600021204600F040F8C3
:104740004FF480711D4800F017F97EB1E068401EFB
:10475000E06010B96068401CE0600021204600F075
:104760002FF84FF48041144800F006F98FB1E0684B
:10477000401CE0606168491C884201D90121E16068
:104780000021204600F01CF84FF400410A4800F0D8
:10479000F3F8BAF1000F0ED04FF48061074800F033
:1047A000EBF8E068012802D10F20BDE8F087E0684F
:1047B0002860FF20F9E76AE7000C0140000801408B
:1047C0002DE9FC4104460F46002F35D04EF67D7092
:1047D000FDF7F2F920694EF67D7300220821009062
:1047E0000A20FCF7CEFE00201C23A02219460090D0
:1047F000FCF7FAFF207D48B144A04EF67D734FF4DC
:104800007842062100908D20FCF7BBFE002040A1DD
:1048100003464FF6FF72CDE900106021FCF797FECA
:10482000002041A103464FF6FF72CDE90010702130
:10483000FCF78DFE0221E160207D60B1E068012877
:1048400000D100E0002019239B2205210090872041
:10485000FCF7CFFA04E0E068012801D10221E16011
:1048600048F210404323A0221D2100900020FDF7B4
:1048700028F8A069C0F30740C010C002218BC1F323
:104880000721891040EA4110217EC1F3C40140EAAA
:104890000108012634E0701EA16801EB801529682B
:1048A000E068814200D02AE0287950B10121281D1A
:1048B0004FF6FF734246CDE9000128210A20FCF79C
:1048C00046FE287E58B1012105F118004FF6FF730E
:1048D0004246CDE9000138210A20FCF738FE95F860
:1048E0002C0058B1012105F12C004FF6FF73424610
:1048F000CDE9000148210A20FCF729FE00BF761C03
:104900006068401CB042C6D8BDE8FC817800000059
:104910002B2D20537769746368204974656D2020BE
:1049200020202020202000005B4F4B5D20456E742E
:104930006572204974656D20202020202020000011
:1049400003465A60996009B1012000E00020187701
:1049500070470000011D00BF081F064901600022CA
:1049600082608261C2600262027742600121017549
:104970007047000054F8000870B504460D466420E6
:1049800000F03AF800BF29462046FCF7C5FD002894
:10499000F9D00A2000F030F870BD016809B100209C
:1049A0007047012101600846704730380A2801D25B
:1049B00001207047002070474FF0E021096921F085
:1049C00004014FF0E0221161C21700EB5272C2F3F2
:1049D000C702074B1A701946097801EB4102C2EB76
:1049E000C1114FF6FF7202EAC101024A11807047FD
:1049F000000000200200002001460D4A12884A43B0
:104A00004FF0E0235A6100229A6101221A6100BF2F
:104A10004FF0E022106900F001021AB100F4803278
:104A2000002AF5D000224FF0E0231A619A61704706
:104A30000200002001460D4A12784A434FF0E0235D
:104A40005A6100229A6101221A6100BF4FF0E022F0
:104A5000106900F001021AB100F48032002AF5D08A
:104A600000224FF0E0231A619A6170470000002095
:104A70001FB5FDF7E7FD4820FFF79EFF4FF47A7062
:104A8000FFF7BAFF01211020FDF706FC01210820E5
:104A9000FDF702FC01210420FDF7FEFB01210807C0
:104AA000FDF7EAFB0120FDF7DFFB4FF40050ADF806
:104AB0000C0003208DF80E0010208DF80F0003A9C4
:104AC0002A48FCF755FC4FF400512848FCF738FD04
:104AD0004FF48050ADF8080003208DF80A00142030
:104AE0008DF80B0002A92248FCF742FC4FF48051DC
:104AF0001F48FCF725FD4FF480511D48FCF71EFDB3
:104B00004FF40060ADF8040003208DF8060010207B
:104B10008DF8070001A91748FCF72AFC4FF4006143
:104B20001448FCF70DFD4FF400611248FCF706FD38
:104B30004FF40050ADF8000003208DF80200102063
:104B40008DF8030069460A48FCF712FC4FF4005147
:104B50000748FCF7F5FC4FF400510548FCF7EEFC64
:104B6000FEF7C0FA002004B010BD000000100140A4
:104B7000000C01400008014010B500290AD0087857
:104B8000002807D005487844FBF7C4FF002801D06F
:104B9000002010BD0248784410BD0000F2AC0000B7
:104BA000EAAC00000000000000000000000000006F
:104BB0000000000000000018181818181808000855
:104BC000180000000000003424242400000000002D
:104BD000000000000000000016247F2424247E240E
:104BE00024000000000000083E6848681C161212ED
:104BF0007C10100000000061D2967408101629493C
:104C0000C6000000000000003C646438724ACE46D2
:104C10007F000000000000181818180000000000B5
:104C20000000000000000004081810303030301080
:104C300010180C04000000201008080C0404040CD8
:104C400008181020000000080A341C6A0800000040
:104C5000000000000000000000001818187F18185D
:104C60001800000000000000000000000000001814
:104C7000180830000000000000000000003C0000A8
:104C8000000000000000000000000000000000180C
:104C9000180000000000000206040C080810102094
:104CA00020400000000000003C6642475B73426603
:104CB0003C000000000000001878480808080808B8
:104CC0007E000000000000003C460606040810209C
:104CD0007E000000000000007C0606043C02020684
:104CE0007C000000000000000C1C14246444FF043D
:104CF00004000000000000007E6060607E0202068A
:104D00007C000000000000001E30604876424262D5
:104D10003C000000000000007E0206040C08181091
:104D200030000000000000003C6242361C66424237
:104D30003C000000000000003C664242661A02048B
:104D400078000000000000000000181800000018A3
:104D500018000000000000000000181800000018F3
:104D60001808300000000000000004183060100C2B
:104D70000600000000000000000000007E007E0031
:104D800000000000000000000000301804060C10B5
:104D900020000000000000301C060606181000105D
:104DA000100000000000001C224141DDB5A5A5AFA8
:104DB00094C0403C00000000181C342426627E434E
:104DC000C1000000000000007C4642467C42424296
:104DD0007C000000000000001E2040404040406079
:104DE0003E000000000000007C4642434343424630
:104DF00078000000000000007E6060607E606060FF
:104E00007E000000000000007E6060607E606060E8
:104E100060000000000000001E604040CE42426280
:104E20003E00000000000000424242427E424242F8
:104E300042000000000000007E181818181818180A
:104E40007E000000000000007C040404040404440C
:104E500078000000000000004244485070584C4464
:104E60004200000000000000202020202020202000
:104E70003E000000000000006266675F5B5BC1C12E
:104E8000C100000000000000626272525A4A4E46A1
:104E900046000000000000003C6243C3C3C34362FD
:104EA0003C000000000000007C4642424678404042
:104EB00040000000000000003C6243C3C3C34362E3
:104EC0003C180F00000000007C6662667C6C646623
:104ED00062000000000000003E6040601C0602020C
:104EE0007C000000000000007F181818181818181F
:104EF000180000000000000042424242424242626A
:104F00003C00000000000000C14342622624341C23
:104F10001800000000000000C1C141495B5B7666DB
:104F2000660000000000000043663418181C246668
:104F3000C300000000000000C14266341C181818AD
:104F400018000000000000007E02040C1810206011
:104F50007E0000000000001C101010101010101037
:104F60001010101C000000402020101008080C0435
:104F7000060200000000003C0C0C0C0C0C0C0C0C8D
:104F80000C0C0C3C00000000181C24620000000007
:104F90000000000000000000000000000000000011
:104FA000000000FF000000201000000000000000D2
:104FB000000000000000000000003C06023E4246E7
:104FC0007A0000000000004040405C6242424242E1
:104FD0007C0000000000000000001E2060406020F7
:104FE0003E0000000000000202023E6242424266B1
:104FF0003A0000000000000000003C62427E406079
:105000003E0000000000000F1810107E101010105D
:10501000100000000000000000003F66426658409B
:105020003E43423C0000004040405C6242424242FB
:10503000420000000000001818007808080808085E
:105040007E000000000000040C007C040404040442
:1050500004040C78000000606060626C7870686422
:105060006200000000000078080808080808080826
:105070007E000000000000000000764B4B4B4B4BC5
:105080004B0000000000000000005C62424242420F
:10509000420000000000000000003C624243426207
:1050A0003C0000000000000000005C6242424242FE
:1050B0007C4040400000000000003E6242424266E8
:1050C0003A0202020000000000006E72636060603D
:1050D000600000000000000000003E20203C0602AE
:1050E0007C000000000000001010FE1010101010D6
:1050F0001E000000000000000000424242424266E2
:105100003A0000000000000000004342662434180A
:1051100018000000000000000000C1C15B5A5E667C
:105120006600000000000000000062261C181C261B
:105130006200000000000000000043426624341CAE
:10514000181830E00000000000007E060C18102047
:105150007E0000000000000E1810101030701010BB
:105160001010180E000008080808080808080808A9
:105170000808080800000030180808080C0E080885
:10518000080818300000000000001FE000003FF099
:1051900000003FF000001FE0000180060003C00F88
:1051A0000003C00F0003C00F0003C00F0003C00FB7
:1051B0000003C00F0003C00F0003C00F0003000373
:1051C00000000000000000000000000000030003D9
:1051D0000003C00F0003C00F0003C00F0003C00F87
:1051E0000003C00F0003C00F0003C00F0003C00F77
:1051F0000001800600001FE000003FF000003FF0CB
:1052000000001FE00000000000000000000000801F
:10521000000001800000038000000780000007807C
:105220000000078000000780000007800000078062
:105230000000078000000780000007800000018058
:1052400000000000000000000000000000000180DD
:105250000000078000000780000007800000078032
:105260000000078000000780000007800000078022
:105270000000078000000380000001800000008023
:10528000000000000000000000001FE000003FF0F0
:105290000000FFF00001FFE0000000060000000F2A
:1052A0000000000F0000000F0000000F0000000FC2
:1052B0000000000F0000000F0000000F00001FE3BF
:1052C00000007FF800007FF800001FE000030000EE
:1052D0000003C0000003C0000003C0000003C000C2
:1052E0000003C0000003C0000003C0000003C000B2
:1052F0000001800000001FF000003FF800003FFCAC
:1053000000001FFE000000000003FF800001FFC03E
:105310000000FFC000007F80000000180000003C7B
:105320000000003C0000003C0000003C0000003C8D
:105330000000003C0000003C0000003C00007F8CAE
:105340000001FFE00001FFF000007F800000000C82
:105350000000003C0000003C0000003C0000003C5D
:105360000000003C0000003C0000003C0000003C4D
:105370000000001800007F800000FFC00001FFC097
:105380000003FF8000000000000000000002000198
:1053900000030003000380070003C00F0003C00FD9
:1053A0000003C00F0003C00F0003C00F0003C00FB5
:1053B0000003C00F0003C00F0003C00F00031FE372
:1053C00000007FF800007FFC00001FE000000003E9
:1053D0000000000F0000000F0000000F0000000F91
:1053E0000000000F0000000F0000000F0000000F81
:1053F0000000000F00000007000000030000000193
:10540000000000000000000000001FFC00003FF84A
:1054100000003FF000001FE0000180000003C0001A
:105420000003C0000003C0000003C0000003C00070
:105430000003C0000003C0000003C00000031FE021
:1054400000007FF800007FF800001FE0000000036C
:105450000000000F0000000F0000000F0000000F10
:105460000000000F0000000F0000000F0000000F00
:105470000000000600003FE000007FF00000FFF0A9
:105480000001FFE00000000000001FFC00003FF8EA
:1054900000003FF000001FE0000180000003C0009A
:1054A0000003C0000003C0000003C0000003C000F0
:1054B0000003C0000003C0000003C00000031FE0A1
:1054C00000007FF800007FFC00001FE000030003E5
:1054D0000003C00F0003C00F0003C00F0003C00F84
:1054E0000003C00F0003C00F0003C00F0003C00F74
:1054F0000001800600001FE000003FF000003FF0C8
:1055000000001FE0000000000007FFE00003FFC0F4
:105510000001FF880000FF1800000038000000783C
:10552000000000780000007800000078000000789B
:1055300000000078000000780000007800000018EB
:105540000000000000000000000000000000001843
:10555000000000780000007800000078000000786B
:10556000000000780000007800000078000000785B
:10557000000000780000003800000018000000085B
:10558000000000000000000000001FE000003FF0ED
:1055900000003FF000001FE0000180060003C00F84
:1055A0000003C00F0003C00F0003C00F0003C00FB3
:1055B0000003C00F0003C00F0003C00F00031FE370
:1055C00000007FF800007FFC00001FE000030003E4
:1055D0000003C00F0003C00F0003C00F0003C00F83
:1055E0000003C00F0003C00F0003C00F0003C00F73
:1055F0000001800600001FE000003FF000003FF0C7
:1056000000001FE00000000000001FE000003FF06D
:1056100000003FF000001FE0000180060003C00F03
:105620000003C00F0003C00F0003C00F0003C00F32
:105630000003C00F0003C00F0003C00F00031FE3EF
:1056400000007FF800007FFC00001FE00000000366
:105650000000000F0000000F0000000F0000000F0E
:105660000000000F0000000F0000000F0000000FFE
:105670000000000600001FE000003FF000007FF087
:105680000000FFE000006C380200010000801F00F5
:10569000010401087D9005A0054009400920111072
:1056A0002108C106050002008FDC000023F810006D
:1056B0001000000007FCF1201120112011201124FE
:1056C00012241224141C280047FE559C01007FFC64
:1056D00001003FF800003FF820083FF80820FFFED7
:1056E00000003FF8200820083FF820086B220080C7
:1056F0000080FC8004FC050449082A401440104046
:1057000028A024A0451081100208040408028299F0
:1057100008200820FFFE0820092001003FF80100B2
:105720000100FFFE01000280044008203018C0067E
:105730005B810200010001007FFE40028004000046
:105740003FF8010001000100010001000100050017
:1057500002005A1C20002FDE22522252F25457D44B
:105760005258525452529FD25252225A225454509A
:1057700055508890592701000100010001000100E7
:10578000FFFE010001000280028004400440082066
:1057900010102008C0064EBA0100010001000100EF
:1057A000010001000280028004400440082008201B
:1057B00010102008400480020000000000000000DB
:1057C00000000000000000000000000000000000D9
:1057D00000000000000000000000000000000000C9
:1057E00000000000000000000000000000000000B9
:1057F00000000000000000000000000000000000A9
:105800000000000000000000000000000000000098
:105810000000000000000000000000000000000088
:10582000000000000010A0008000011B0A43EA42B3
:10583000CA42CA3ACA3ACA3ACA3ACA3AEA42EB42EF
:105840000B430B430B43EB42EB42EB42EB42EB428D
:10585000EC42EC42EC420F4B7784FCB57EBE7EC638
:105860007EBE3EAE9C95376C314BEE42ED42EC4233
:10587000CC42CC42CB3ACB3AAB3ACB3ACB3ACB3A0E
:10588000AB3AAB3AAB3AAB3ACB3A8B32AD212E11B5
:10589000ED08CD08CC08CC08CC08CC08CC08CC0846
:1058A000CC08CC08CC08CB08CB08CB08CB08CB085D
:1058B000CB08CB08CB08CB08CB08CB08CB08CC084F
:1058C000CC08CC08CC08CC08CC08CD08CD08CD0835
:1058D000ED08ED08ED08ED08ED08EE082F11D221D6
:1058E000342A1322552AF9323B335C3B9C3BBC43A0
:1058F000BB4B3B6C7B9D7CC6BCCE78A5936B1132B9
:1059000070197119711971197119911991219119E0
:10591000911992199219B221B221B221B221B22168
:10592000B22191216F4AB39C96BD55B58E7BC9417A
:105930006D29912192199119911970195019EE1030
:10594000EB3935A539C6946B8F21EA392C6BEF837F
:105950004E6B892109010901090129012901290148
:105960000901090109010801080108010B43EA4284
:10597000CA42CA3ACA3ACA3ACA3AEA42EB420B4364
:105980000B430B43EB42EB42EB42EB42EB42EB426D
:10599000EC42EC420C43ED4250539784DCAD5DBECB
:1059A0007EC67EBE3EB69C955774304BED42ED42AE
:1059B000EC42EC42CC42CB3ACB3ACB3ACB3ACB3A64
:1059C000CB3AAB3AAB3AAB3AAB3A2C2A4E11ED0894
:1059D000CD08CD08CD08CC08CC08CC08CC08CC0824
:1059E000CC08CC08CC08CB08CB08CB08CB08CB081C
:1059F000CB08CB08CB08CB08CB08CB08CC08CC080D
:105A0000CC08CC08CC08CC08CC08CD08CD08CD08F3
:105A1000ED08ED08ED08ED08ED08EE08EE082F1191
:105A2000B221342A342A352AD9323C335C3B5C3BE0
:105A30007C3B9C43FB5BBA84FBB57BC61ABEB68C31
:105A4000D252B029701970197119711991199119DF
:105A50009119911992199221B219B221B221B22150
:105A6000B221D031B17B55B514ADCF830B4A6E292D
:105A70009121B221B22192199119711970192F1126
:105A80002C21318C39C65584F031EE62719413A506
:105A9000B39C8C5229112A094A114A094A094A0918
:105AA0002A01090109010901090108010B43EA4220
:105AB000CA42CA3ACA3ACA3AEA42EB42EB420B43FA
:105AC0000B430B430B43EB42EB42EB42EB42EB420B
:105AD000EB42EC420C430C430D43305335747BA531
